:020000040800F2
:1000000060060020B101000891060008890600087A
:100010008D0600086B020008E30B000800000000DA
:10002000000000000000000000000000890A000835
:1000300071020008000000005D080008C901000806
:10004000CB010008CB010008CB010008CB01000860
:10005000CB010008CB0100087302000875020008FC
:1000600077020008CB010008CB010008CB01000893
:10007000CB010008CB010008CB010008CB01000830
:10008000CB0100086F020008CB010008CB0100087B
:10009000CB010008CB010008CB010008CB01000810
:1000A000CB010008D50B0008CB010008CB010008EC
:1000B000D70B0008D90B0008DB0B0008CB010008A8
:1000C000CB010008CB010008CB010008CB010008E0
:1000D000CB010008DD0B0008DF0B0008E10B000876
:1000E000CB010008CB010008CB010008CB010008C0
:1000F000CB010008CB010008CB010008CB010008B0
:10010000CB010008CB010008CB010008CB0100089F
:10011000CB010008CB010008CB010008CB0100088F
:10012000CB010008CB010008CB010008CB0100087F
:1001300000F002F800F02CF80AA090E8000C8244CD
:100140008344AAF10107DA4501D100F021F8AFF2AA
:10015000090EBAE80F0013F0010F18BFFB1A43F0A5
:1001600001031847200C0000300C0000002300247D
:1001700000250026103A28BF78C1FBD8520728BFB7
:1001800030C148BF0B6070471FB51FBD10B510BD13
:1001900000F031F81146FFF7F7FF00F0B7FD00F06F
:1001A0004FF803B4FFF7F2FF03BC00F057F800006C
:1001B0000948804709480047FEE7FEE7FEE7FEE7FB
:1001C000FEE7FEE7FEE7FEE7FEE7FEE70448054937
:1001D000054A064B70470000750B00083101000806
:1001E0006000002060060020600200206002002005
:1001F000704770477047754600F02CF8AE46050012
:100200006946534620F00700854618B020B5FFF731
:10021000DDFFBDE820404FF000064FF000074FF033
:1002200000084FF0000B21F00701AC46ACE8C00914
:10023000ACE8C009ACE8C009ACE8C0098D4670471D
:1002400010B50446AFF300802046BDE81040FFF72C
:10025000A8BF000000487047000000200149182096
:10026000ABBEFEE726000200704700BFFEE7704706
:100270007047704770477047014908607047000039
:10028000140401401CB50120FFF7F6FF0220FFF720
:10029000F3FF0420FFF7F0FF0021032000F000F936
:1002A0000121032000F0FCF80221032000F0F8F8FF
:1002B0000720009000208DF8040008208DF805002C
:1002C00001208DF80600684600F002F81CBD000011
:1002D000002123498279002A3AD00A46126803682D
:1002E0009A430B461A600A1D126803689A430B1D55
:1002F0001A60027911440A6803681A430A60184AAE
:100300000832126803689A43154B08331A601A1DA5
:10031000126803689A43124B0C331A604279102A10
:100320000ED11A1F126803681A430D4B08331A6066
:100330001A1D126803681A43094B0C331A600DE04A
:100340000749427911440A6803681A430A6005E0C4
:10035000027911440A6803689A430A6070470000F2
:10036000000401400549096821F01001034A1160A9
:1003700011460968014311607047000000200240E7
:1003800001460020034A106800F03800084310605E
:10039000704700000020024008B501217C2000F0D9
:1003A0005FFA0121084600F05BFA0121384800F0AD
:1003B00023F90F20ADF8000003208DF80200102073
:1003C0008DF803006946334800F08AF8F020ADF854
:1003D000000003208DF8020010208DF8030069460C
:1003E0002C4800F07DF84FF47060ADF80000032059
:1003F0008DF8020010208DF803006946254800F0B2
:100400006FF84FF48050ADF8000003208DF8020023
:1004100010208DF8030069461E4800F061F84FF483
:100420002840ADF8000003208DF8020010208DF860
:1004300003006946174800F053F80F20ADF800009C
:1004400003208DF8020048208DF803006946124809
:1004500000F046F84FF47060ADF8000003208DF80E
:10046000020010208DF8030069460B4800F038F8B0
:100470004FF6FF70ADF8000003208DF80200102049
:100480008DF803006946054800F02AF808BD000011
:1004900010001400000C0140001001400018014041
:1004A00030B500228B071C0F0F2303FA04F20B4B0D
:1004B0008C1053F824309343084C8D1044F82530A9
:1004C00023468C1053F824308C07240F00FA04F4D0
:1004D0002343024C8D1044F8253030BD0800014004
:1004E0002DE9F041024600250026002000230024CB
:1004F000002791F803C00CF00F0591F803C00CF031
:10050000100CBCF1000F03D091F802C04CEA0505B5
:1005100091F800C0BCF1000F31D0146800202BE02E
:100520004FF0010C0CFA00F3B1F800C00CEA03061E
:100530009E4220D183004FF00F0C0CFA03F7BC430E
:1005400005FA03FC4CEA040491F803C0BCF1280F3F
:1005500006D14FF0010C0CFA00FCC2F814C00AE0FE
:1005600091F803C0BCF1480F05D14FF0010C0CFA13
:1005700000FCC2F810C0401C0828D1D31460B1F8A8
:1005800000C0BCF1FF0F34DD546800202EE000F104
:10059000080C4FF0010808FA0CF3B1F800C00CEA9F
:1005A00003069E4221D183004FF00F0C0CFA03F793
:1005B000BC4305FA03FC4CEA040491F803C0BCF107
:1005C000280F05D100F1080C08FA0CF8C2F81480C5
:1005D00091F803C0BCF1480F07D100F1080C4FF0AF
:1005E000010808FA0CF8C2F81080401C0828CED385
:1005F0005460BDE8F0810000F0B50A4600230024F5
:100600000021002500F00046B6F1004F02D11D4E3A
:10061000F16901E01B4E7168C0F3034583B200F439
:100620004016B6F5401F08D121F07061154E76686E
:1006300026F07066134F7E6012E000F48016B6F567
:10064000801F06D1032606FA05F4A14341F070612C
:1006500006E0460D360103FA06F6B14341F070613B
:1006600022B1460D360103FA06F6314300F000468A
:10067000B6F1004F02D1034EF16101E0014E71600D
:10068000F0BD00000000014000BFFEE700BFFEE734
:10069000704708B54FF4A06000F0D6F806208DF83A
:1006A000000000208DF8010001208DF802008DF877
:1006B0000300684600F090F807208DF80000002045
:1006C0008DF8010001208DF802008DF803006846C6
:1006D00000F082F808208DF8000000208DF801005D
:1006E00001208DF802008DF80300684600F074F8D0
:1006F00019208DF8000001208DF8010000208DF8F0
:10070000020001208DF80300684600F065F81C2007
:100710008DF8000001208DF8010000208DF8020006
:1007200001208DF80300684600F056F81D208DF872
:10073000000001208DF801008DF802008DF8030003
:10074000684600F049F81E208DF8000000208DF862
:10075000010001208DF802008DF80300684600F0CA
:100760003BF825208DF8000000208DF801000120C5
:100770008DF802008DF80300684600F02DF8262061
:100780008DF8000000208DF8010001208DF8020096
:100790008DF80300684600F01FF827208DF8000050
:1007A00000208DF8010002208DF8020001208DF854
:1007B0000300684600F010F811208DF800000120B9
:1007C0008DF8010000208DF8020001208DF8030053
:1007D000684600F001F808BD70B5002100230F2223
:1007E000C47804B3154C246804F4E064C4F5E064F0
:1007F000210AC1F10403CA40447804FA03F1847861
:100800001440214309010E4C0678A155047804F0E8
:100810001F050124AC4005786D11AD0005F1E02500
:10082000C5F8004109E0047804F01F050124AC403C
:10083000044D0678761145F8264070BD0CED00E0B9
:1008400000E400E080E100E002490143024A116057
:10085000704700000000FA050CED00E07047000052
:1008600029B1064A92690243044B9A6104E0034AA3
:1008700092698243014B9A61704700000010024068
:1008800010B500F02FF84FF4803000F083F800F03E
:10089000DFF80446012C24D1002000F06FF800207E
:1008A00000F0AAF8A00200F09BF80220FFF768FD14
:1008B0001020FFF757FD4FF4E011200400F0AEF8D0
:1008C000012000F0A5F800BF392000F031F8002821
:1008D000FAD0022000F0B0F800BF00F047F8082876
:1008E000FBD110BD0F48006840F001000D490860C1
:1008F000084640680C4908400A49486008460068B4
:100900000A490840074908600846006820F480202A
:1009100008600846406820F4FE0048604FF41F005D
:1009200088607047001002400000FFF8FFFFF6FEED
:1009300010B501460022002300204A11012A02D1ED
:10094000094C236806E0022A02D1074C236A01E021
:10095000054C636A01F01F02012494401C400CB155
:10096000012000E0002010BD001002400248406855
:1009700000F00C007047000000100240014600200B
:10098000034A506820F0F0000843506070470000B0
:10099000001002401149096821F480310F4A1160AA
:1009A0001146096821F480211160B0F5803F03D021
:1009B000B0F5802F0ED106E00849096841F4803176
:1009C000064A116007E00549096841F4A021034A7D
:1009D000116000E000BF00BF70470000001002403F
:1009E00001460020034A506820F4E060084350604C
:1009F000704700000010024001460020034A506882
:100A000020F4605040EAC10050607047001002407E
:100A1000014908667047000000004242024600207B
:100A2000044B586820F47C1042EA01031843014B40
:100A3000586070470010024001460020034A506889
:100A400020F003000843506070470000001002408F
:100A500038B5002000900024002500BF3120FFF7AA
:100A600067FF05460098401C00900098B0F5A06F05
:100A700001D0002DF2D03120FFF75AFF08B1012438
:100A800000E00024204638BD704710B500F002F8A1
:100A900010BD00000CB500200190009033480068A4
:100AA00040F480303149086000BF3048006800F4ED
:100AB000003000900198401C0190009818B90198EE
:100AC000B0F5A06FF1D12948006800F4003010B1F2
:100AD0000120009001E0002000900098012843D1FF
:100AE0002348006840F0100021490860084600686B
:100AF00020F0030008600846006840F0020008602B
:100B00001A484068194948600846406848600846E5
:100B1000406840F4806048600846406820F47C10DB
:100B200048600846406840F4E8104860084600689D
:100B300040F08070086000BF0C48006800F0007052
:100B40000028F9D00948406820F0030007494860B0
:100B50000846406840F00200486000BF0348406813
:100B600000F00C000828F9D10CBD00000010024074
:100B70000020024010B51348006840F00100114900
:100B8000086008464068104908400E494860084619
:100B900000680E4908400B4908600846006820F4C8
:100BA000802008600846406820F4FE0048604FF44A
:100BB0001F008860FFF769FF4FF00060044908607C
:100BC00010BD0000001002400000FFF8FFFFF6FE1D
:100BD00008ED00E0704770477047704770477047F6
:100BE000704700BFFEE7000010B5FF20082184E039
:100BF0000022444C04EB8103C3F88021424A12686E
:100C000062B1414A121D126842B13F4A083212686D
:100C100022B13D4A0C321268002A66D1082906D05A
:100C200009291BD00A2930D00B295CD144E0364A6F
:100C300012680AB9002010E0334A121D12680AB97E
:100C400001200AE0304A083212680AB9022004E0A2
:100C50002D4A0C32126802B9032045E02A4A126874
:100C60000AB9042010E0284A121D12680AB90520AA
:100C70000AE0254A083212680AB9062004E0224A2E
:100C80000C32126802B907202EE01F4A12680AB916
:100C9000082010E01C4A121D12680AB909200AE057
:100CA000194A083212680AB90A2004E0164A0C32BE
:100CB000126802B90B2017E0134A12680AB90C2017
:100CC00010E0114A121D12680AB90D200AE00E4AFE
:100CD000083212680AB90E2004E00B4A0C3212687E
:100CE00002B90F2000E000BF00BF0122054C04EB59
:100CF0008103C3F880214A1CD1B20C29FFF678AFDA
:100D000010BD00000000224200012242FFF7B8FDA2
:100D1000FFF742FBFFF7BDFCFFF7B4FA00BF2EE080
:100D2000FFF762FF0446FF2C00D100BF1CB9012071
:100D30001349086002E0002011490860052C04D125
:100D400001200F49091D086003E000200C49091D1E
:100D500008600A2C04D1012009490831086003E029
:100D600000200749083108600F2C04D101200449F4
:100D70000C31086003E0002001490C310860CFE726
:100D800080012342940D000800000020600600004E
:040D90006C010008EA
:0400000508000131BD
:00000001FF
