:020000040000FA
:1000000000100020C9020000C51C0000C11B000038
:1000100000000000000000000000000000000000E0
:10002000000000000000000000000000091E0000A9
:100030000000000000000000491D0000051F000036
:100040008520000025210000DB0200004B1D000080
:10005000DB0200007114000029200000DB02000018
:10006000991F000025200000DB0200008F14000013
:100070008D1400000B1E00000D2200007F1C0000EC
:10008000C91600000D1700000F17000073140000C0
:10009000751400007714000079140000311D000071
:1000A000DB020000451D0000DB020000471D0000D0
:1000B000BF160000C1160000C3160000C5160000E0
:1000C0000000000000000000000000000000000030
:1000D0000000000000000000000000000000000020
:1000E0000000000000000000000000000000000010
:1000F0000000000000000000000000000000000000
:1001000000000000000000000000000000000000EF
:1001100000000000000000000000000000000000DF
:1001200000000000000000000000000000000000CF
:1001300000000000000000000000000000000000BF
:1001400000000000000000000000000000000000AF
:10015000000000000000000000000000000000009F
:10016000000000000000000000000000000000008F
:10017000000000000000000000000000000000007F
:10018000000000000000000000000000000000006F
:10019000000000000000000000000000000000005F
:1001A000000000000000000000000000000000004F
:1001B000000000000000000000000000000000003F
:1001C000000000000000000000000000000000002F
:1001D000000000000000000000000000000000001F
:1001E000000000000000000000000000000000000F
:1001F00000000000000000000000000000000000FF
:100200000000000000F002F800F04EF80CA030C82A
:10021000083824182D18A246671EAB4654465D4682
:10022000AC4201D100F040F87E460F3E0FCCB646FE
:100230000126334200D0FB1AA246AB46334318478F
:100240006027000080270000103A02D378C878C1E8
:10025000FAD8520701D330C830C101D504680C6008
:10026000704700000023002400250026103A01D327
:1002700078C1FBD8520700D330C100D50B6070475E
:1002800010B5662902D102F039FB10BD002010BD67
:100290001FB500F0FFFC04000020002102F018FB55
:1002A000E0601FBD10B510BD01F076F81146FFF7F4
:1002B000EFFF02F0F9F801F08EF803B4FFF7F2FF58
:1002C00003BC02F041F80000084880470848004796
:1002D000FEE7FEE7FEE7FEE7FEE7FEE7FEE70000DB
:1002E00004480549054A064B704700004D1F0000B1
:1002F00005020000C8030020C8060020C804002032
:10030000C8040020704700000FB4054910B503AAC7
:10031000029800F0ABFC10BC08BC04B01847000009
:1003200018000020F8B50E46044600202062204642
:10033000E1688847002829D0252802D06268A16892
:1003400020E0E16820460027884705001ED02846A7
:100350004138192802D80127FF02203532462046AD
:1003600027602946FFF78CFF002808D0012804D019
:10037000F61DF608F6000836D9E7361DD7E762689D
:100380002846A1689047206A401CCFE7206AF8BD44
:10039000002203098B422CD3030A8B4211D3002382
:1003A0009C464EE003460B433CD4002243088B425C
:1003B00031D303098B421CD3030A8B4201D39446E9
:1003C0003FE0C3098B4201D3CB01C01A52418309DC
:1003D0008B4201D38B01C01A524143098B4201D396
:1003E0004B01C01A524103098B4201D30B01C01AC1
:1003F0005241C3088B4201D3CB00C01A524183083B
:100400008B4201D38B00C01A524143088B4201D367
:100410004B00C01A5241411A00D2014652411046C7
:1004200070475DE0CA0F00D04942031000D340423C
:10043000534000229C4603098B422DD3030A8B4272
:1004400012D3FC22890112BA030A8B420CD3890110
:1004500092118B4208D3890192118B4204D38901F6
:100460003AD0921100E08909C3098B4201D3CB0134
:10047000C01A524183098B4201D38B01C01A5241E9
:1004800043098B4201D34B01C01A524103098B42ED
:1004900001D30B01C01A5241C3088B4201D3CB00D8
:1004A000C01A524183088B4201D38B00C01A5241BB
:1004B000D9D243088B4201D34B00C01A5241411A92
:1004C00000D20146634652415B10104601D34042C0
:1004D000002B00D54942704763465B1000D3404271
:1004E00001B50020C046C04602BD70477047704746
:1004F00030B50346CA02400D1043164D164C0A157E
:1005000002D02043002A06DBAA1A002A12DDD040BE
:10051000FF2A0BDC30BD5205520D01D140004008CE
:10052000AA1A07D4D0404042FF2A01DD002030BD86
:100530000028FCDD4A00002B01D0012000E0002053
:10054000101801225205D042F0D8C817C0436040AD
:1005500030BD00001E04000000000080F0B58B4C90
:100560000F09254689B0BD437BD01D092646AE4301
:10057000FAD00E465E402740F60F3E43254071D02C
:1005800024012142FBD0FF24AD19A4042D1B0395A7
:1005900001252D05DB02DB0AC9022B43C90A2943C9
:1005A0001E010901040F130F050121431701880BD8
:1005B000820391432D098C46A90B1E438A03954360
:1005C000B30B9A0396433F09BA0B9403A7430296D1
:1005D0002E467E430497B6464E19D7190C4601960F
:1005E000544305977E43371B7646BF1B3601B646FC
:1005F000BE0B361900967646BC043719009C01D311
:10060000641C00946400002F01D001263443029E34
:10061000049F754366467E430496760034196E0047
:1006200034190094029C019E1C196643751BAE464A
:10063000069465464519059C05956C4359437546D6
:100640000891691A0191049E01465143A41B04912B
:10065000611A009C0791E10605D06109012211434E
:1006600002E072E06EE06109089D00272C0A2D0669
:100670006918049D7C412A0A2D066918019D624172
:10068000AC0DAD026D185441079A910D92025519A7
:100690006141029A644658435443069B059A5A4363
:1006A000121A131B9A0E9B015B187A41010B00056D
:1006B000C3185141220A200644195A419A4200D2D5
:1006C000491C01204002814203D315230226F64330
:1006D00002E014230326F6432020C51AA94017463A
:1006E000AF40DA400A4320460399D84009147318F2
:1006F00019055118039A3843D2075140AC4009D02C
:100700000122944006D30022401C5141002C01D10B
:10071000400840001E4A934212D3012203989206D9
:10072000904207DB0520400709181A480143C01210
:10073000414004E0032040070818C10FC90700200A
:1007400009B0F0BD0020F107FAE705180C464C414E
:1007500011486D42A04115D394181A465A410E48CB
:10076000644290410ED301204A004005824209D3E1
:100770005A00824206D35940C90F084AC9070020CF
:100780001143DDE700200649DAE700000000FF071B
:10079000FE070000FFFFFF7F0000E0FF0000F07F8A
:1007A0000000F87F0121C9050123411842001B0602
:1007B000D3185B0E0AD0C1100722D2068918400751
:1007C0005242D14201D5520089187047090208D51A
:1007D0000146002A03D0C10FC90700207047104608
:1007E0007047420202D000200249704707210905E4
:1007F0000143F4E70000F87F1F22030C02D10F220F
:1008000000041CD0030E01D10002083A030F01D1ED
:100810000001121F830F01D18000921E002801DB0E
:100820004000521ED2055118021251181922904050
:1008300004D3491C002801D14908490008467047E3
:10084000C10FC90700D04042012292071143D3E7EC
:1008500001218907D0E770477047FFB50C461E4657
:100860008FB003CA089009914F007D0D00D16D1E15
:10087000002108460020C0460321099A8905084046
:10088000002A03DA8200801840080840800D012801
:100890000A9002DD0020C0430A90089807430DD05B
:1008A000EF48F049281848430714189800281DD02D
:1008B0007542291E1DDD0A9842421BE01898012846
:1008C00002D00020302104E00020F24305E0215452
:1008D000401CB042FBDB30460022189B0021215413
:1008E0000F998B600A60486013B0F0BDBD1B6D1C92
:1008F000DFE70A9A002900DA69420BA800F068FADB
:100900000BAB07CB03AB07C30899099800F0C4FAF7
:100910006B4607C30146D4480918002D00910ADD33
:10092000D14903980A9A4942401803A9039068469E
:1009300000F0E5FC07E003990A9A081803A9039060
:10094000684600F0A4FC6B4607C30004000C03D00B
:100950000020C043410800E01046189A002A03D046
:100960000022009215461EE0751E05D400F096F98F
:10097000303262556D1EF9D501220843079602D028
:1009800000227F1C04E02078302801D100227F1E45
:10099000002A069789D01EE0112D07DA00F07EF9B3
:1009A000303262556D1C02460A43F5D1084303D02C
:1009B0000098002819D00EE00021681E05E0235C95
:1009C000625C63542254401E491C8142F7DBA81B21
:1009D000401E07950690079A18990020A0540F987A
:1009E000079B069A81600CC07EE7112600201890B4
:1009F0005BE7D21DF0B50D460446D10893B0C9009F
:100A000003C90C900D9101F029FC02460D98C00F0E
:100A100001D02D2007E02068810701D52B2002E0BE
:100A20004007C00F4001032A0F9001D0072A05DBC1
:100A300003462946204600F087F90EE1207880061B
:100A400001D5E76900E006272846652D04D0662811
:100A500014D0672D69D12DE00020112F009001DB0B
:100A6000112300E07B1C0CAA03A910A8FFF7F5FED8
:100A70001199002610987D1C0E9142E001203B4602
:100A80000CAAC0070B900120009003A910A8FFF743
:100A9000E4FE119D12981099002600280E9501D1B0
:100AA000781C0D18781B02D446427D1C761EE81B6C
:100AB00000903AE0012F00DA01270020112F00906A
:100AC00001DD112300E03B460CAA03A910A8FFF7A3
:100AD000C4FE11993D46109800260E912178090711
:100AE0000BD40E99A94200DA0D4603A9012D04DDAD
:100AF0004A19203AD27F302A06D0B84201DA011DC5
:100B000004DA012100910FE06D1EEFE7002802DCFE
:100B100086192D1A03E0411CA94200DD0D46801BF9
:100B2000401C00900120C0070B902078000705D4DE
:100B30000098A84202DB0020C043009069460020D4
:100B4000C8720B98012102AF0337C907884225D02C
:100B5000022010902B2011900B9800280BDA4042B5
:100B60000B902D20119006E00B9800F0FDFB30312A
:100B70007F1E0B9039701099481E00291090F3DCED
:100B80000B980028F0D111987F1E3870208800053E
:100B900001D5452000E065207F1E387001A8C01BEC
:100BA000C01D0B900F98002800D00120411900981B
:100BB000C01709180B980818A169081A401EA061EF
:100BC0002078C00602D42046C046C0460F980028B0
:100BD00005D06268A1689047206A401C2062207896
:100BE000C00625D52046C046C04621E0002E07DBC2
:100BF0000E98B04204DD03A86268805DA16802E03F
:100C00006268A16830209047206A761C401C2062F0
:100C10000098401E002800900AD100F03BF8C06800
:100C200062680168405CA1689047206A401C2062AD
:100C300028466D1E0028D9DC07E062683878A16874
:100C40007F1C9047206A401C20620B99481E002997
:100C50000B90F2DC2046C046C046032044E600006C
:100C600001FCFFFF104D0000E1DFFFFF084B70B5F6
:100C70000D467B4400F055F80446284600F070FB12
:100C8000002802D00020C04370BD204670BD000087
:100C9000FB16000000487047840300200B4670B527
:100CA000024689078008084319469D08141AA9417D
:100CB00025090807054308092C194841250A01069A
:100CC0000D43010A2C194141200C0D0428430D0C41
:100CD00000194D41002140194D41C00869070843E2
:100CE000E908840F8D002543840024184D41241900
:100CF0006D41121BAB4107E00925ED432C11521940
:100D000063410024401C61411C460A250026551BF6
:100D1000B441F1D270BD000001694A1C026108783B
:100D2000704700B58FB002910021059105490193EC
:100D300079440391114604906846FFF7F3FA0FB027
:100D400000BD0000E5FFFFFFF8B51F460446012384
:100D50000068DB02032601461840072A05DB00284D
:100D600001D017A506E017A504E0002801D016A5BC
:100D700000E016A5102081432160A069C01E002F4D
:100D8000A06101D0401EA0612046C046C046002F91
:100D900009D038466268A1689047206A401C2062EA
:100DA000C01C206206E0206AFAE762682878A16821
:100DB0006D1C9047761EF8D22046C046C046F8BD4E
:100DC0004E414E006E616E00494E4600696E6600EF
:100DD000F7B516468AB02F4878446C4603467C33F4
:100DE000C06F5A689B680DC42A487844763003ACBB
:100DF0000DC80DC43720C001081837211B30FFF77C
:100E0000D1FA05460C46803D1B3C02D564420120C8
:100E100000E00020002709900FE0E0070BD00C2035
:100E20001C497843794432464C394118684600F0F1
:100E30002EFA6B4607C364107F1C002CEDD1154FB2
:100E40007F442C3F15E0E80711D02001C0190EC8DF
:100E50000691089307920068F04201D19819089012
:100E6000324606A903A800F012FA03AB07C36D10BF
:100E7000641C002DE7D1324669460998002803A872
:100E800002D000F03CFA01E000F001FA0A9B07C32F
:100E90000DB0F0BD301B0000034640000A4610B5FF
:100EA000400D0BD00121C9070F24A40200191C0317
:100EB00064082143540D2143D20207E000210120A0
:100EC000F2E7D40F490021435200401E0029F8DA0E
:100ED000DB0FDB07184310BDFFB50D46144685B088
:100EE0004868516801F093F900910190A868A168E1
:100EF00001F08DF902910390A868616801F087F90B
:100F0000029A12188242029201D2012000E00020CF
:100F1000019A0B18D2180028019202D08A4202D9F5
:100F200003E08A4201D2012000E000200099081865
:100F300000906868A16801F06AF9029A121882426A
:100F4000029201D2012000E00020019A0B18D21871
:100F50000028019202D08A4202D903E08A4201D2DB
:100F6000012000E0002000990818009028682168FE
:100F700040004900400849084018F549471814E066
:100F800001994000C90F0843009001980299400060
:100F9000C90F08430190029803994000C90F084304
:100FA0000290039840007F1E039000980028E7DA23
:100FB0000898002801D0E74E00E00026B74228DA62
:100FC000F71BF806C00E15D0029B2021091A039AC0
:100FD0008B401A430392029A019BC2408B401A43F2
:100FE0000292019A009BC2408B4000991A430192E1
:100FF000C14000917A110BD06B460320811A01D5B4
:10100000002101E0890059588700401ED951F5D5CB
:10101000374603980299002800D001200143089820
:101020000291002808460CD0002800D00120019928
:10103000019A490508430121D20AC902D20201924C
:1010400000E001210E9B0122D207012B02D0002BD0
:1010500003D013E0002807D116E0904204D8904254
:101060000CD1019B0B4209D0019B5918019105D16C
:101070000099491C009101D17F1C0092002803D0E7
:10108000102108460020C04628682168019B009A6C
:101090004840C10F0598C90739430EC009B0F0BDDB
:1010A000FFB587B0099A0898089953689268406814
:1010B000896896460022039317469446089A126858
:1010C0005300099A5B081268520052089A1AA24B00
:1010D000D4180A9A002A01D0352200E04022069254
:1010E0000022012315460492DB07059324E0002D1E
:1010F00005D175460346039E4D1BB34109D3754682
:101100006646039B491B049D9841059B7519AC4697
:101110005F4163463B4308D0059B049EDD0776088C
:101120002E435B080496059301E0521E641EC50F12
:10113000ED0749184041521C069B9A42D7DB002D0F
:1011400004D17546039A6B1A824101D203200CE048
:10115000039A0B466B404240134303D0014303D034
:10116000012002E0022000E0002061460191002100
:10117000009702910A99002905D061464002014377
:10118000744B019102E08007002302909C423ADAFE
:101190001A1BD006C00E15D0029D2021019C091AF1
:1011A000C5408C402543029C8C4000D0012425433F
:1011B000019C02953D46C4408D4039462C43C140B8
:1011C0000194009154111DD06D4602210022022984
:1011D0000CD10320001B07E0002804DB8600AE5979
:1011E000002E00D00122401C0328F5DB081B02D58D
:1011F00088002A5004E08000285810438A00A85034
:10120000491EE3D51C460A98002802980CD00028F5
:1012100000D001200199019A490508430121D20A11
:10122000C902D202019200E00121109B0122D207E3
:10123000012B02D0002B03D013E0002807D116E0C9
:10124000904204D890420CD1019B0B4209D0019BE3
:101250005918019105D10099491C009101D1641CD4
:101260000092002803D0102108460020C0460898AC
:101270000999019A0068096848400099C30F0798C6
:10128000DB0723430360826041600BB0F0BD1FB5F4
:10129000002300920A46014601A8FFF71DFE01AB9C
:1012A00007CB04B010BDF0B585B0012300920A460B
:1012B000014601A8FFF710FE01990F220298920241
:1012C000CF0F4900039E49088C1AFF070021002810
:1012D00000DB0C46450021486D08844206D30D46CC
:1012E0000E460446102108460020C0462005E90AA3
:1012F000084369053843F20A05B01143F0BD1FB534
:10130000002300920A46014601A8FFF7C9FE01AB7F
:1013100007CBC6E71FB5012300920A46014601A884
:10132000FFF7BEFE01AB0F2407CBA402C30F4000A2
:10133000DB074008001B002900DB002049000005F6
:101340004908CC0A204349051843D20A1143A8E7AB
:1013500002C0FFFF013C0000FF3F0000FF0700004C
:10136000C06880210840704701468008081A0209B9
:101370001018020A1018020C1018C0088200121867
:101380005200891A01E0401C0A390A29FBD2704731
:1013900000487047640300207546FFF7F9FFAE462A
:1013A000050069465346C008C000854618B020B500
:1013B000FEF796FF60BC00274908B6460026C0C568
:1013C000C0C5C0C5C0C5C0C5C0C5C0C5C0C5403DFD
:1013D00049008D46704710B50446C046C0462046B9
:1013E000FEF76BFF10BD0000024670B50A4392077E
:1013F0002AD11E4DEE0104C808C9541B9443344041
:1014000017D0D0B2D9B2401A2106014310D190B200
:1014100099B2401A210401430AD110021902000AAC
:10142000090A401A2102014302D1100E190E401A76
:1014300070BD9A42DFD010BA19BA884201D9012092
:1014400070BD0020C04370BD02780B78401C491C61
:10145000002A09D09A4207D102780B78401C491C17
:10146000002A01D09A42EFD0D01A70BD01010101CB
:101470007047704770477047034840694008400014
:10148000401C01494861704700800A40704770471E
:1014900010B5002400F078FF04E0601CC4B2012005
:1014A00000F084FC114800680121C90308400028AD
:1014B00001D0C82CF1DBC82C01DB012010BD0024B9
:1014C00004E0601CC4B2012000F070FC0748006812
:1014D0000121C9030840002801D1F02CF1DBF02CD8
:1014E00001DB0120EAE70020E8E70000800000407F
:1014F000F0B589B000270026002400F08FF800F036
:1015000077F8FFF7C5FFCC2000F094F8BE2000F07C
:1015100091F800F05BF8064600F058F80446072CF6
:1015200004DDE043C4B2F043C6B200E00127254623
:10153000280205B2A81905B22846FFF781F90190E3
:10154000FFF730F900220D4B03910290FFF706F8E8
:1015500000220B4B05910490FFF700F807910690CD
:10156000FEF7C6FF05B2002F04D02846FFF768F942
:1015700009B0F0BD6842FFF763F9F9E70000B03F3A
:101580000000244010B500F017FF0120C0030E49F1
:101590008861022000F00AFC0120C0030A4948616A
:1015A00000F0F2FE0C2000F001FC07480068012169
:1015B000C9030840002801D0012400E000243220A3
:1015C00000F0F4FB204610BD8000004070B50026FE
:1015D000012508E0FFF7D6FF0446E001711008433B
:1015E000C6B2681CC5B2082DF4DD304670BD0000DF
:1015F00010B500F0E1FE0120C003064988610648ED
:1016000000F0D4FB0120C003024948610F2000F024
:10161000CDFB10BD80000040EE02000010B5FFF7CA
:10162000E7FFFFF735FFCC2000F004F8442000F07E
:1016300001F810BD70B5044600F0BEFE012523E0A0
:10164000E607F60F6410002E0ED00120C0031049EB
:101650008861022000F0AAFB0120C0030C49486108
:101660003C2000F0A3FB0DE00120C0030849886185
:101670003C2000F09BFB0120C0030549486102208B
:1016800000F094FB681CC5B2082DD9DD70BD0000C8
:101690008000004001B502E00098401E00900098D4
:1016A0000028F9D108BD10B500F0B0FB00F006F934
:1016B00000F0A4FA00F086FD00F083FA10BD704738
:1016C000704770477047000010B50F48006801214F
:1016D0008902084000280ED10B48006A890008439F
:1016E0000949086288148861C82000F031FE012091
:1016F000000305494861102000F0D2FD012080025E
:1017000001494031086010BD8000004070477047BB
:1017100070B51C46130000F092FD100915212D39FB
:1017200045515D6975818D99A5B1BDC90D681726B3
:10173000B5430D605F4B604E33602B46234303433C
:101740000B60B4E04D681726B5434D60594B5A4EB7
:1017500033602B46234303434B60A8E08D68172674
:10176000B5438D60534B544E33602B4623430343A4
:101770008B609CE0CD681726B543CD604D4B4E4E37
:1017800033602B4623430343CB6090E00D6917265B
:10179000B5430D61474B484E33602B46234303430B
:1017A0000B6184E04D691726B5434D61414B424EB4
:1017B00033602B46234303434B6178E08D69172642
:1017C000B5438D613B4B3C4E33602B462343034373
:1017D0008B616CE0CD691726B543CD61354B364E34
:1017E00033602B4623430343CB6160E00D6A172629
:1017F000B5430D622F4B304E33602B4623430343DA
:101800000B6254E04D6A1726B5434D62294B2A4EB0
:1018100033602B46234303434B6248E08D6A17260F
:10182000B5438D62234B244E33602B462343034341
:101830008B623CE0CD6A1726B543CD621D4B1E4E30
:1018400033602B4623430343CB6230E00D6B1726F6
:10185000B5430D63174B184E33602B4623430343A8
:101860000B6324E04D6B1726B5434D63114B124EAD
:1018700033602B46234303434B6318E08D6B1726DD
:10188000B5438D630B4B0C4E33602B462343034310
:101890008B630CE0CD6B1726B543CD63054B064E2D
:1018A00033602B4623430343CB6300E000BF00BFFC
:1018B00070BD00009A65FA050008084000B50123D4
:1018C000022251070020FFF723FF0123032299077B
:1018D0000020FFF71DFF00231A4655491846FFF761
:1018E00017FF0023012252491846FFF711FF00237A
:1018F00002224F491846FFF70BFF002303224C49F1
:101900001846FFF705FF0023042249491846FFF750
:10191000FFFE0023052246491846FFF7F9FE002383
:10192000062243491846FFF7F3FE002307224049E9
:101930001846FFF7EDFE002308223D491846FFF741
:10194000E7FE002309223A491846FFF7E1FE00238B
:101950000A2237491846FFF7DBFE00230B223449E1
:101960001846FFF7D5FE00230C2231491846FFF731
:10197000CFFE00230D222E491846FFF7C9FE002393
:101980000E222B491846FFF7C3FE00230F222849D9
:101990001846FFF7BDFE00231A46012189071846A5
:1019A000FFF7B6FE0023012291071846FFF7B0FEAD
:1019B00000230A2251071846FFF7AAFE00230B2234
:1019C000012189071846FFF7A3FE0022012189079C
:1019D000104600F02FF801229107002000F02AF8AD
:1019E0000A225107002000F025F80B220121890767
:1019F000002000F01FF808220D49002000F01AF81E
:101A000009220B49002000F015F80A22084900209D
:101A100000F010F80B220649002000F00BF800231C
:101A20000C22012189071846FFF772FE00BD000055
:101A30000010004030B50446130000F000FC10090F
:101A4000141F2A35404B56616C77828D98A3AEB92E
:101A50000868C025A8430860574B584D2B600346C3
:101A600023430B60A5E04868C025A8434860524B5B
:101A7000524D2B60034623434B609AE08868C02593
:101A8000A84388604C4B4D4D2B60034623438B602D
:101A90008FE0C868C025A843C860474B474D2B60FE
:101AA00003462343CB6084E00869C025A84308614E
:101AB000414B424D2B60034623430B6179E048695B
:101AC000C025A84348613C4B3C4D2B600346234353
:101AD0004B616EE08869C025A8438861364B374D5D
:101AE0002B60034623438B6163E0C869C025A8438C
:101AF000C861314B314D2B6003462343CB6158E025
:101B0000086AC025A84308622B4B2C4D2B60034666
:101B100023430B624DE0486AC025A8434862264B28
:101B2000264D2B60034623434B6242E0886AC02562
:101B3000A8438862204B214D2B60034623438B62D0
:101B400037E0C86AC025A843C8621B4B1B4D2B60F9
:101B500003462343CB622CE0086BC025A8430863EF
:101B6000154B164D2B60034623430B6321E0486B56
:101B7000C025A8434863104B104D2B6003462343F8
:101B80004B6316E0886BC025A84388630A4B0B4D56
:101B90002B60034623438B630BE0C86BC025A8432F
:101BA000C863054B054D2B6003462343CB6300E020
:101BB00000BF00BF30BD00009A65FA05000808406C
:101BC000704710B5172000F077FB062000F074FB7B
:101BD000162000F071FB082000F06EFB092000F0D9
:101BE0006BFB002000F068FB102000F065FB11206B
:101BF00000F062FB122000F05FFB10BD10B5172053
:101C000000F042FB0121172000F062FB062000F0EB
:101C10003BFB0021062000F05BFB162000F034FBAC
:101C20000121162000F054FB082000F02DFB0221BA
:101C3000082000F04DFB092000F026FB02210920BE
:101C400000F046FB002000F01FFB0321002000F005
:101C50003FFB012000F018FB0321012000F038FBBE
:101C6000052000F011FB0021052000F031FB1020C1
:101C700000F00AFB0021102000F02AFB10BD704785
:101C80000F48006A082108430D4908620846006AA7
:101C9000102108430A4908620846006A40210843A7
:101CA000074908620846006A80210843044908621F
:101CB0000846006AC91308430149086270470000DA
:101CC00080200040704700000A480B49C8610A485C
:101CD000403800688905084307494039086000BF5B
:101CE0000548403800680121890708400028F7D0DE
:101CF000704700009A65FA054010084030B5094C5D
:101D00006468094D2C40074D6C6023460C01044368
:101D100095022C432343054C024D4035EC61014CA8
:101D2000636030BD001008400EF3FFFF9A65FA05AE
:101D30000348006B40084000401C0149086370479D
:101D400040400A4070477047704770470146144A48
:101D5000144BDA61134A403A926803231B029A43F8
:101D6000FF32FF3202320F4B403B9A607D22D2009D
:101D70004A430D4B5A6100229A6101221A6100BF49
:101D8000094A1069C207D20F002A04D001221204A6
:101D90000240002AF4D00022034B1A619A61704776
:101DA0009A65FA054010084000E000E0134A144B21
:101DB000DA61134A403A926803231B029A43FF32C6
:101DC000FF3202320E4B403B9A600E4A50610022B5
:101DD0000C4B9A6101221A6100BF0A4A1169CA07B5
:101DE000D20F002A04D0012212040A40002AF4D0A3
:101DF0000022044B1A619A61704700009A65FA0547
:101E00004010084000E000E07047704700B53A48D5
:101E10003A49C86139484038006B01214903884379
:101E20004018364940390863032211460020FFF765
:101E300065FFFFF749FF30483049C86130484861C5
:101E40002D48C861084600690121890488432B494F
:101E500008612948C861002028494039C8602648DF
:101E60002649C86125484038C068000A0002401C65
:101E700022494039C86020482049C8611F4840387D
:101E8000C0680F2109028843FF3001301B494039E7
:101E9000C86019481949C8611848403840680F217E
:101EA000090688430121C906401814494039486091
:101EB00011481249C8611148403840680721090794
:101EC00088430121890740180C49403948600A4875
:101ED0000A49C86109484038806880088000801C31
:101EE00006494039886000BF044840388068C00611
:101EF000C00F0028F8D000BD9A65FA0540100840D0
:101F0000CCCC5FA010B510480068012189020840C0
:101F1000002814D10C48006A890008430A49086265
:101F200088148861C82000F013FA012000030649D4
:101F300048610846006A8914884303490862002002
:101F4000C04300F0ADF910BD8000004010481149B9
:101F5000C8610020C0430F49403908610C480D4951
:101F6000C8610020C0430B4940394861084809490D
:101F7000C8610020C04307494039886104480549C9
:101F8000C8610020C04303494039C8617047000060
:101F90009A65FA054010084010B510488068042181
:101FA00088430E49886002200D49C86100F06CFB2F
:101FB0000C490870094880680221884307498860F5
:101FC00000200860082000F06BF9044880680421B4
:101FD0008843001D0149886010BD000000F00A40E0
:101FE00080100040140000207D20C0000C49486093
:101FF00008468068082188430830094988600846F7
:10200000806804218843001D054988600820C86055
:102010000846806840084000401C88607047000007
:1020200000F00A407047000015480069022188430B
:10203000801C134908610846006904218843001D7B
:102040000F490861084600690821884308300C4997
:102050000861084600694915884340180849086125
:102060000846006909158843401805490861084673
:1020700000690121C902884340180149086170477D
:1020800000C00A402449086820210140002924D0CA
:102090002021214A51602149898A002918DD1F49E0
:1020A000898A491E8AB21D498A82498A491C8AB294
:1020B0001A494A82498A1A4A515C174A403A1160C1
:1020C0001649498AFA2908DB002214494A8204E0A9
:1020D000002212490A824A828A7510210140002991
:1020E00018D00D4940390968CAB20C490B8B8639A2
:1020F000CA548631898B491C8AB208498A83098B64
:10210000491C8AB205490A83098B642902DB002233
:1021100002490A8370470000400009409C010020EA
:102120001C0000202449086820210140002924D0F7
:102130002021214A51602149898A002918DD1F493F
:10214000898A491E8AB21D498A82498A491C8AB2F3
:102150001A494A82498A1A4A515C174A403A116020
:102160001649498AFA2908DB002214494A8204E008
:10217000002212490A824A828A75102101400029F0
:1021800018D00D4940390968CAB20C490B8B863901
:10219000CA548631898B491C8AB208498A83098BC3
:1021A000491C8AB205490A83098B642902DB002293
:1021B00002490A8370470000401009404003002094
:1021C000C00100201048006B40084000401C0E4930
:1021D000086327204862052088626020C86208469C
:1021E000806B10218843084988630846806B202152
:1021F0008843054988630448403080680221884349
:102200000149403188607047000009407047F8B5C7
:10221000040C8BB2264682B25E43104658430D0C26
:10222000370C360400218019164679416E43370C6D
:1022300036048019264679416E438919F8BD30B4B9
:102240007446641E2578641CAB4204D3635D5B0056
:10225000E31830BC18471D46F8E700004900CA02E1
:102260000243100000D004204A0D01D00122104387
:10227000044A490D914201D102210843012800D1AD
:1022800005207047FF070000002805DBC206D20EBC
:1022900001219140014A11607047000080E200E096
:1022A000002805DBC206D20E01219140014A1160CF
:1022B0007047000080E200E0002805DBC206D20E75
:1022C00001219140014A11607047000000E100E0E7
:1022D00010B5002819DB1A4A03231B02D218830801
:1022E0009B00D2588307DC0EFF23A3409A438B0741
:1022F0001B0E8407E40EA3401A43114B032424024F
:102300001B198408A4001A5118E00E4A03071B0F7A
:10231000083B9B089B00D2588307DC0EFF23A34099
:102320009A438B071B0E8407E40EA3401A43054B08
:102330000407240F083CA408A4001A5110BD000093
:1023400000E100E01CED00E0014600BF0020704706
:102350007D21C90005E000BF0A46491E002AFBD1C5
:1023600002490246401E002AF5D17047881300003A
:10237000044A106000BF034A92691206D20F002A75
:10238000F9D070470000094010B50A48006A0121E1
:10239000C90388430749086200230F22C90518466C
:1023A000FFF7B6F90F22012189078020FFF742FBD2
:1023B00010BD0000800000400348006A0121C903ED
:1023C00008430149086270478000004000B50120C1
:1023D00000F038FA00BD000000B50120C003144928
:1023E00088616420FFF756F90120C0031049486155
:1023F0006420FFF74FF9302000F024FA0A20FFF79D
:1024000049F90C2000F01EFA0A20FFF743F90120D9
:1024100000F018FA0A20FFF73DF9022000F012FA46
:102420000A20FFF737F9802000F00CFA00BD000009
:102430008020004030B505460C46012D06D0022D07
:102440000AD0032D0ED0042D18D111E08021214394
:10245000084600F0F7F912E090212143084600F009
:10246000F1F90CE088212143084600F0EBF906E081
:1024700098212143084600F0E5F900E000BF00BFC5
:1024800030BDF0B506460F46144639463046FFF7D4
:10249000D1FF002504E0605D00F00AFA681CC5B2B7
:1024A000605D0028F7D1F0BDFFF7FDF856480069E0
:1024B000002055490861FFF797FDFFF79FFB534840
:1024C000006B012189028843504908630846406B2C
:1024D000091508434D4948630846806B0915884330
:1024E0004A4988630846C06B091588434749C86351
:1024F00008154649403108604348006A444908438A
:102500004149086208460069424908433E4908615A
:102510003E48006A891408433C490862FFF7B0FB53
:102520006420FFF715FF80203B4988614020486107
:10253000FFF752FF6420FFF70BFFFFF747FF642010
:10254000FFF706FF35A201210846FFF79AFF37A2E1
:1025500000210220FFF795FF39A202210420FFF796
:1025600090FF50E038480078384908600846006815
:10257000012803D104202449886102E00420224973
:10258000486132480068052803D108201E49886147
:1025900002E008201C4948612C480068092803D142
:1025A00010201949886102E0102017494861274826
:1025B00000680D2804D1012000031449886103E05C
:1025C000012000031149486101200F498861FF2063
:1025D000F530FFF7BBFB01200B494861FF20F530C8
:1025E000FFF7B4FBFEF784FF19490860084600684E
:1025F000FEF7D8F8044622460B4616A0FDF784FEE7
:1026000018A0FDF781FEADE780100040800000407B
:10261000FFF00000FFFF000080200040BABCD6DDC4
:10262000C0CAD1B8BFC6BCBC000000004C43443196
:1026300032383634D2BABEA7C0FDB3CC0000000099
:10264000404C554E54454B0014000020040000201F
:1026500000000020B5B1C7B0CEC2B6C83A2546A129
:10266000E60D0A002D2D2D2D2D2D2D2D2D2D5465F2
:10267000737446696E69736865642D2D2D2D2D2D3B
:102680002D2D2D2D0D0A0000F8B514276A48006A7B
:10269000FF21090208436849086208460069C0B280
:1026A0000861084600690F2109030843624908616F
:1026B0000846006A0005000D08620C225E49803958
:1026C0008020FFF7B7F90D225B4980398020FFF7A2
:1026D000B1F90E22584980398020FFF7ABF90F225B
:1026E000554980398020FFF7A5F953480068000458
:1026F000060EF02E09D051480078022808DA4F481B
:102700000078401C4D49087002E000204B490870D9
:102710004A48007802286ED1F020344604404648EA
:10272000006AFF210902084343490862084600691C
:10273000C0B20861084600690F21090208433E49FA
:1027400008610846006A3E4908403B490862082281
:10275000394980398020FFF76DF9092236498039DF
:102760008020FFF767F90A22334980398020FFF77C
:1027700061F90B22304980398020FFF75BF92E4840
:1027800000680005050F20462843D7283ED012DCFC
:10279000B7283DD008DC77283CD07B2832D07D2874
:1027A00027D07E2838D11CE0BB2829D0BD281ED0D8
:1027B000BE2831D113E0E72826D006DCDB281DD067
:1027C000DD2812D0DE2827D107E0EB2814D0ED2831
:1027D00009D0EE2820D101271FE002271DE00327A2
:1027E0001BE00A2719E0042717E0052715E0062754
:1027F00013E00B2711E011E007270EE008270CE09B
:1028000009270AE00C2708E00E2706E0002704E06D
:102810000F2702E00D2700E000BF00BF0648006858
:10282000FF21090208400F210903884202D100203C
:10283000024908703846F8BD80100040150000209D
:10284000FFF0000010B50446F82000F00BF8F0216E
:102850002140084600F006F82107080E00F002F8B3
:1028600010BD000000B5014600221BE0802008409A
:10287000802802D110200D4B58618020084000288C
:1028800002D11020094B98610820084B9861FF2065
:102890005F30FEF7FFFE0820044B58614806010E2A
:1028A000501CC2B2082AE1DB00BD000080200040BD
:1028B00010B50446FA20FFF7D5FFF0212140084665
:1028C000FFF7D0FF2107080EFFF7CCFF10BD000077
:1028D00010B500290AD00878002807D005487844A8
:1028E000FEF782FD002801D0002010BD0248784488
:1028F00010BD0000E2000000DA00000003B402484E
:102900007844844603BC6047EFE0FFFF02400000CC
:10291000000000A00000000005400000000000C80A
:10292000000000000C4000000000409C000000007F
:10293000194000000020BCBE000000003440000030
:10294000BFC91B8E00000004B5400000504BCFD023
:102950006607E2CF010000006C4100003E8251AAF0
:10296000DFEEA73401000000D9420000DCB5A0E290
:102970003A301F97FFFFFFFFB4450000FD25A0C8B8
:10298000E9A3C14FFFFFFFFFFF3F000000000080F1
:1029900000000000FF3F0000000000800000000079
:1029A000DC290000000000201C000000480200009C
:1029B000F82900001C000020AC06000064020000A2
:1029C0001C00000043000000F8FFFFFF0C000000A7
:1029D0000E0000000F0000002E00000000000000AC
:1029E00000000000000000000000000000000000E7
:0829F0001400000000000000CB
:0400000500000205F0
:00000001FF
