:020000040800F2
:1000000090060020CD01000815070008E50600084D
:10001000E9060008B50200088F0F00080000000084
:10002000000000000000000000000000210C00089B
:10003000BB02000800000000E1080008990D00085C
:10004000E7010008E7010008E7010008E7010008F0
:10005000E7010008E7010008C7020008C90200081C
:10006000CB020008E7010008E7010008E7010008EB
:10007000E7010008E7010008E7010008E7010008C0
:10008000E7010008B9020008E7010008E7010008DD
:10009000E7010008E7010008E7010008E7010008A0
:1000A000E7010008FD0D0008E7010008E70100086E
:1000B000350E0008370E0008390E0008E701000869
:1000C000E7010008E7010008E7010008E701000870
:1000D000E7010008890F00088B0F00088D0F00084A
:1000E000E7010008E7010008E7010008E701000850
:1000F000E7010008E7010008E7010008E701000840
:10010000E7010008E7010008E7010008E70100082F
:10011000E7010008E7010008E7010008E70100081F
:10012000E7010008E7010008E7010008E70100080F
:1001300000F002F800F03AF80AA090E8000C8244BF
:100140008344AAF10107DA4501D100F02FF8AFF29C
:10015000090EBAE80F0013F0010F18BFFB1A43F0A5
:1001600001031847A8140000C8140000103A24BF67
:1001700078C878C1FAD8520724BF30C830C144BF0C
:1001800004680C607047000000230024002500264E
:10019000103A28BF78C1FBD8520728BF30C148BFEA
:1001A0000B6070471FB51FBD10B510BD00F031F8D2
:1001B0001146FFF7F7FF00F0BFFF00F04FF803B460
:1001C000FFF7F2FF03BC00F057F800000948804732
:1001D00009480047FEE7FEE7FEE7FEE7FEE7FEE729
:1001E000FEE7FEE7FEE7FEE704480549054A064B41
:1001F000704700009D0D00083101000890000020AC
:100200009006002090020020900200207047704766
:100210007047754600F02CF8AE4605006946534617
:1002200020F00700854618B020B5FFF7DDFFBDE8D8
:1002300020404FF000064FF000074FF000084FF04D
:10024000000B21F00701AC46ACE8C009ACE8C009DE
:10025000ACE8C009ACE8C0098D46704710B504464B
:10026000AFF300802046BDE81040FFF7A8BF0000B4
:10027000004870472C00002001491820ABBEFEE763
:10028000260002007047000010B500F0B7FC002007
:100290000649086001200649C1F8840100F00EF803
:1002A00000200249091D086010BD000080012142A4
:1002B0000000214200BFFEE77047704710B50620DE
:1002C00000F083FE10BD7047704770470149086019
:1002D00070470000140401401CB50120FFF7F6FF31
:1002E0000220FFF7F3FF0420FFF7F0FF00210320B7
:1002F00000F004F90121032000F000F9022103209D
:1003000000F0FCF80720009000208DF80400082081
:100310008DF8050001208DF80600684600F002F80F
:100320001CBD0000002123498279002A3AD00A46E8
:10033000126803689A430B461A600A1D1268036824
:100340009A430B1D1A60027911440A6803681A4324
:100350000A60184A0832126803689A43154B08333A
:100360001A601A1D126803689A43124B0C331A6004
:100370004279102A0ED11A1F126803681A430D4BD6
:1003800008331A601A1D126803681A43094B0C33AC
:100390001A600DE00749427911440A6803681A435C
:1003A0000A6005E0027911440A6803689A430A600A
:1003B00070470000000401400549096821F0100160
:1003C000034A11601146096801431160704700003B
:1003D0000020024001460020034A106800F0380067
:1003E00008431060704700000020024008B501215A
:1003F0007C2000F077FA0121084600F073FA012111
:10040000394800F027F90121384800F023F902208B
:10041000ADF8000003208DF8020010208DF80300D5
:100420006946334800F08AF80F20ADF80000032039
:100430008DF8020010208DF8030069462D4800F069
:100440007DF81020ADF8000003208DF80200182080
:100450008DF803006946274800F070F8E020ADF8F9
:10046000000003208DF8020010208DF8030069467B
:10047000204800F063F84FF47060ADF800000320EE
:100480008DF8020010208DF803006946194800F02D
:1004900055F84FF48050ADF8000003208DF80200AD
:1004A00010208DF803006946124800F047F84FF419
:1004B0002840ADF8000003208DF8020010208DF8D0
:1004C000030069460B4800F039F84FF6FF70ADF8AD
:1004D000000003208DF8020010208DF8030069460B
:1004E000054800F02BF808BD1000140000081A00A1
:1004F00000080140000C01400018014030B5002206
:100500008B071C0F0F2303FA04F20B4B8C1053F8CC
:1005100024309343084C8D1044F8253023468C102A
:1005200053F824308C07240F00FA04F42343024CC0
:100530008D1044F8253030BD080001402DE9F04110
:10054000024600250026002000230024002791F801
:1005500003C00CF00F0591F803C00CF0100CBCF1B7
:10056000000F03D091F802C04CEA050591F800C0D5
:10057000BCF1000F31D0146800202BE04FF0010CCB
:100580000CFA00F3B1F800C00CEA03069E4220D139
:1005900083004FF00F0C0CFA03F7BC4305FA03FC81
:1005A0004CEA040491F803C0BCF1280F06D14FF0C7
:1005B000010C0CFA00FCC2F814C00AE091F803C068
:1005C000BCF1480F05D14FF0010C0CFA00FCC2F849
:1005D00010C0401C0828D1D31460B1F800C0BCF191
:1005E000FF0F34DD546800202EE000F1080C4FF0BE
:1005F000010808FA0CF3B1F800C00CEA03069E42A9
:1006000021D183004FF00F0C0CFA03F7BC4305FA1D
:1006100003FC4CEA040491F803C0BCF1280F05D197
:1006200000F1080C08FA0CF8C2F8148091F803C025
:10063000BCF1480F07D100F1080C4FF0010808FA8F
:100640000CF8C2F81080401C0828CED35460BDE8D6
:10065000F0810000F0B50A460023002400210025A7
:1006600000F00046B6F1004F02D11D4EF16901E0E5
:100670001B4E7168C0F3034583B200F44016B6F513
:10068000401F08D121F07061154E766826F0706623
:10069000134F7E6012E000F48016B6F5801F06D17D
:1006A000032606FA05F4A14341F0706106E0460D09
:1006B000360103FA06F6B14341F0706122B1460DEE
:1006C000360103FA06F6314300F00046B6F1004F5A
:1006D00002D1034EF16101E0014E7160F0BD0000F6
:1006E0000000014000BFFEE700BFFEE710B500F0CC
:1006F00085FA0120054908600549C1F88401FFF722
:10070000DDFD00200149091D086010BD8001214266
:1007100000002142704708B54FF4A06000F0D6F801
:1007200006208DF8000000208DF8010001208DF8D2
:1007300002008DF80300684600F090F807208DF85D
:10074000000000208DF8010001208DF802008DF8D6
:100750000300684600F082F808208DF800000020B1
:100760008DF8010001208DF802008DF80300684625
:1007700000F074F819208DF8000001208DF80100B8
:1007800000208DF8020001208DF80300684600F07B
:1007900065F81C208DF8000001208DF80100002074
:1007A0008DF8020001208DF80300684600F056F82D
:1007B0001D208DF8000001208DF801008DF8020049
:1007C0008DF80300684600F049F81E208DF80000FF
:1007D00000208DF8010001208DF802008DF8030043
:1007E000684600F03BF825208DF8000000208DF8C9
:1007F000010001208DF802008DF80300684600F02A
:100800002DF826208DF8000000208DF80100012031
:100810008DF802008DF80300684600F01FF82720CD
:100820008DF8000000208DF8010002208DF80200F4
:1008300001208DF80300684600F010F811208DF8B3
:10084000000001208DF8010000208DF80200012039
:100850008DF80300684600F001F808BD70B500216E
:1008600000230F22C47804B3154C246804F4E06418
:10087000C4F5E064210AC1F10403CA40447804FAD3
:1008800003F184781440214309010E4C0678A155E8
:10089000047804F01F050124AC4005786D11AD000B
:1008A00005F1E025C5F8004109E0047804F01F05D2
:1008B0000124AC40044D0678761145F8264070BD01
:1008C0000CED00E000E400E080E100E002490143BB
:1008D000024A1160704700000000FA050CED00E0CC
:1008E0007047000029B1064A92690243044B9A619D
:1008F00004E0034A92698243014B9A617047000009
:100900000010024010B500F02FF84FF4803000F0D6
:1009100083F800F0DFF80446012C24D1002000F019
:100920006FF8002000F0AAF8A00200F09BF8022067
:10093000FFF750FD1020FFF73FFD4FF4E0112004BA
:1009400000F0AEF8012000F0A5F800BF392000F05B
:1009500031F80028FAD0022000F0B0F800BF00F013
:1009600047F80828FBD110BD0F48006840F001008F
:100970000D490860084640680C4908400A4948602B
:10098000084600680A4908400749086008460068A8
:1009900020F4802008600846406820F4FE0048608B
:1009A0004FF41F0088607047001002400000FFF8FD
:1009B000FFFFF6FE10B501460022002300204A1179
:1009C000012A02D1094C236806E0022A02D1074C11
:1009D000236A01E0054C636A01F01F020124944080
:1009E0001C400CB1012000E0002010BD00100240AE
:1009F0000248406800F00C00704700000010024000
:100A000001460020034A506820F0F000084350607F
:100A100070470000001002401149096821F480313C
:100A20000F4A11601146096821F480211160B0F568
:100A3000803F03D0B0F5802F0ED106E00849096849
:100A400041F48031064A116007E00549096841F424
:100A5000A021034A116000E000BF00BF7047000002
:100A60000010024001460020034A506820F4E06074
:100A7000084350607047000000100240014600200B
:100A8000034A506820F4605040EAC100506070474B
:100A90000010024001490866704700000000424211
:100AA00002460020044B586820F47C1042EA0103FF
:100AB0001843014B58607047001002400146002067
:100AC000034A506820F0030008435060704700005C
:100AD0000010024038B5002000900024002500BF1F
:100AE0003120FFF767FF05460098401C00900098F2
:100AF000B0F5A06F01D0002DF2D03120FFF75AFFE2
:100B000008B1012400E00024204638BD70B500F093
:100B100075F801201549086000F05EF8002521E015
:100B2000012000F052FA00201049091D0860FFF76B
:100B3000C5FB01200E49C1F8840100F046FA6006A9
:100B4000040E0A4880380068012801D1601CC4B234
:100B5000FFF7B4FB00200549091D0860FFF7AEFB55
:100B6000681CC5B2082DDBDB204670BD8001214228
:100B70000000214270B505460E4600F0D5FB284620
:100B800000F050F81348007808B9002070BD3046D6
:100B900000F048F80F48007808B90020F6E700F0A8
:100BA000C3FB691CC8B200F03DF80A48007808B9D8
:100BB0000020EBE7FFF7AAFF0446FFF765FB2402DE
:100BC000FFF7A4FF0443FFF791FD00F0C7FB2046A9
:100BD000DCE700002B00002008B50120ADF8000084
:100BE00003208DF8020048208DF803006946024872
:100BF000FFF7A4FC08BD00000008014008B5012073
:100C0000ADF8000003208DF8020010208DF80300DD
:100C100069460248FFF792FC08BD00000008014049
:100C20007047000070B50446FFF7E8FF002517E0A5
:100C300004F0800018B101201A49086002E0002089
:100C40001849086001201749091D0860FFF736FBA5
:100C500000201549C1F884016006040E681CC5B265
:100C6000082DE5DBFFF72AFB01200E490860FFF79E
:100C700025FB01200C49C1F88401FFF71FFBFFF79A
:100C8000ABFF084880380068012803D100200749DD
:100C9000087002E001200549087000200149091D83
:100CA000086070BD80012142000021422B0000201D
:100CB00010B500F001F810BD0CB5002001900090B7
:100CC0003348006840F480303149086000BF304844
:100CD000006800F4003000900198401C01900098DA
:100CE00018B90198B0F5A06FF1D12948006800F457
:100CF000003010B10120009001E000200090009829
:100D0000012843D12348006840F0100021490860C1
:100D10000846006820F0030008600846006840F0BC
:100D2000020008601A48406819494860084640684F
:100D300048600846406840F4806048600846406863
:100D400020F47C1048600846406840F4E810486091
:100D50000846006840F08070086000BF0C480068DA
:100D600000F000700028F9D00948406820F0030026
:100D7000074948600846406840F00200486000BFEC
:100D80000348406800F00C000828F9D10CBD0000B1
:100D900000100240002002407047000010B51348C8
:100DA000006840F001001149086008464068104999
:100DB00008400E494860084600680E4908400B4943
:100DC00008600846006820F48020086008464068F3
:100DD00020F4FE0048604FF41F008860FFF768FFB2
:100DE0004FF000600449086010BD00000010024090
:100DF0000000FFF8FFFFF6FE08ED00E010B501214E
:100E0000084800F029F828B107480068C04307499E
:100E1000C1F88001064800F0F3F80121014800F014
:100E20000CF810BD002C0140800123420000234239
:100E300020000020704770477047CA430282704705
:100E400021B1028842F00102028004E002884FF6DC
:100E5000FE731A400280704730B50246002000231E
:100E60000024158A05EA0103958905EA010413B1F6
:100E70000CB1012000E0002030BD1AB183890B4382
:100E8000838102E083898B438381704701894FF618
:100E9000F872114001817047002202881D4B984270
:100EA0000ED01D4B98420BD0B0F1804F08D01B4B99
:100EB000984205D01A4B984202D01A4B984204D15E
:100EC0004FF68F731A404B881A43174B984207D03E
:100ED000164B984204D04FF6FF431A40CB881A4372
:100EE00002808B8883850B8803850A4B98420BD040
:100EF000094B984208D00E4B984205D00D4B9842B2
:100F000002D00D4B984201D10B7A038601238382D4
:100F100070470000002C01400034014000040040F4
:100F200000080040000C0040001000400014004089
:100F30000040014000440140004801403EB50546E4
:100F40000C460121C802FFF7CDFC0E48FFF79EFFBB
:100F5000ADF800500020ADF80200ADF80440ADF847
:100F600006008DF8080069460648FFF795FF012244
:100F700011460448FFF781FF01210248FFF760FF97
:100F80003EBD0000002C014070477047704700BF15
:100F9000FEE7014642F228324A434FF0E0235A610D
:100FA00000229A6101221A6100BF4FF0E02210690D
:100FB00000F001021AB100F48032002AF5D00022BC
:100FC0004FF0E0231A619A617047014601EBC102BC
:100FD0004FF0E0235A6100229A6101221A6100BF9A
:100FE0004FF0E022106900F001021AB100F48032E3
:100FF000002AF5D000224FF0E0231A619A61704771
:101000004949097831B101290FD0022919D00329A2
:101010002CD121E00121454A1160454AC2F8B411A2
:101020000021424A1032116021E000213F4A116044
:1010300001213F4AC2F8B41100213C4A103211602C
:1010400015E00121394A11600021394AC2F8B41172
:10105000364A103211600AE00021344A1160344AE5
:10106000C2F8B411314A1032116000E000BF00BF75
:101070002D490978415C2F4A515C01F001012B4A4E
:101080002C3A116028490978415C2A4A515CC1F325
:101090004001274AC2F8881123490978415C254A52
:1010A000515CC1F38001224AC2F884111E490978BB
:1010B000415C204A515CC1F3C0011D4AC2F8A41131
:1010C00019490978415C1B4A515CC1F30011184A67
:1010D000C2F89C1114490978415C164A515CC1F36D
:1010E0004011134AC2F8A8110F490978415C114A0E
:1010F000515CC1F380110E4AC2F8B0110A49097857
:10110000415C0C4A515CC909094AC2F8941106496C
:101110000978491C044A117011460978042901D143
:1011200000211170704700002A000020AC8121428C
:101130000080214208000020FFF7E4FBFFF756F98A
:10114000FFF7E9FAFFF7C8F8142141F61F40FFF74F
:10115000F5FE4FF0750ADDE000219020FFF70AFD53
:1011600082464FF47A70FFF714FF4FEA5A1A50463E
:1011700000F03BF9064600224FF07F5300F048F99B
:1011800004460022644B00F043F9804600F000F969
:1011900082460AF0010018B101206049086002E0AF
:1011A00000205E4908600AF0020020B101205B497E
:1011B000091D086003E000205849091D08600AF075
:1011C000040020B1012055490831086003E00020E7
:1011D0005249083108600AF0080020B101204F4947
:1011E0000C31086003E000204C490C3108600AF023
:1011F000100020B1012049491031086003E00020AF
:101200004649103108600AF0200020B1012043490E
:101210001431086003E000204049143108600AF0EE
:10122000400020B101203D491831086003E0002052
:101230003A49183108600AF0800020B1012037498E
:101240001C31086003E0002034491C3108604FF471
:101250007A70BAFBF0F018B90C203149087005E03B
:101260004FF47A70BAFBF0F02D4908706420BAFB95
:10127000F0F00A21B0FBF1F201FB120040B94FF48B
:101280007A70BAFBF0F018B90C20254948700AE0D2
:101290006420BAFBF0F00A21B0FBF1F201FB12006E
:1012A0000D301F4948706420BAFBF0F00A21B0FBF2
:1012B000F1F201FB120080B90A20BAFBF0F0B0FB9A
:1012C000F1F201FB120040B94FF47A70BAFBF0F072
:1012D00018B90C201249887009E00A20BAFBF0F016
:1012E0000A21B0FBF1F201FB12000D4988700A20BF
:1012F000BAFBF0F100FB11A00949C8700948006869
:1013000020B9012005491C31086003E00020034991
:101310001C31086020E70000000059408001234292
:10132000200000202C01224210B5FFF767FC0120AD
:10133000084908600849C1F88401FEF7BFFF002092
:1013400004490860FEF7BAFF00200349C1F8840190
:1013500010BD0000800121420000214210B5FFF7BE
:101360004DFC00200849086001200849C1F88401AB
:10137000FEF7A4FF012004490860FEF79FFF00204C
:101380000249C1F8840110BD8001214200002142C0
:101390004FEA1153A3F58063D3F11E03A8BFD3F125
:1013A000200C08DB4FF0004242EAC12252EA5052C0
:1013B00032FA03F0704709420BD4102BC4BF00204F
:1013C000704703F5787CBCF1FF3F05D04FF0FF304C
:1013D00070474FF00000704770B500F0C3F800BFD1
:1013E0004992248000207047F0E7B0FA80F310FAA9
:1013F00003F10AD0C3F11D0303F580634FEA4150A6
:101400004FEA035202EBD12170474FF000007047C2
:10141000DFF848C170B51CEA111E1EBF1CEA131587
:101420009EEA0C0F95EA0C0F00F06F8081EA03042E
:1014300023EA4C134EEAD47E21EA4C1141F4801188
:1014400043F48013AE44A1FB024CA0FB0365AEF154
:101450007F7E361955EB0C05A1FB034C4CF10003C4
:10146000A0FB021C16EB0C06654153F10003094278
:1014700018BF46F0010613F4007F0BD14FEA033189
:101480004FEA0530340341EA155140EA16506FF037
:1014900003020AE04FEAC3214FEAC520F40241EA01
:1014A000555140EA56506FF0020202EB2E4201EB1A
:1014B000025585EACE710AD05FEA440C18BF24F0C9
:1014C000004450F1000041F1000120EAD47040F2E4
:1014D000FE7C624500D270BDA84214BF4FF080442C
:1014E0004FF04044002E08BF0024BEF1806FA8BF1B
:1014F000A1F1C041BDE8704080F282804FF0000051
:1015000001F1C04101F0004170479EEA0C0F0CEA66
:10151000131518BF95EA0C0F06D04FF0000081EAB2
:10152000030E0EF0004170BD00F01CF88900013E72
:1015300000F007B800F009B84FEA430C5FEA5C5CC2
:1015400008D081EA030100F05BB84FEA410C5FEA82
:101550005C5CF6D14FF00000014970470000FF07C6
:101560000000F87F0EF1020E2EF0030E5EF8046B01
:10157000364205D4012A43EB030515F5001F12D8A6
:10158000012841EB010C1CF5001F0CD80ED14FEACD
:10159000D17C15F5001F0CEB4C0C0CF1020C08BFB4
:1015A0004CEBD37C04E04FF0080C01E04FEAD37C15
:1015B0000CEB4C0526FA05F606F00706B6F1040C0E
:1015C00006D20EEB860CBDE870404CF0010C604773
:1015D000DFE80CF0090B02024FF000414FF0000071
:1015E000A1F5002170BD19461046012851EB0104F8
:1015F00018BFD4F5001484BF002001F0004170BD75
:101600000808A0F500114FEA310170472C160008B8
:10161000000000202C0000006C0100085816000893
:101620002C00002064060000880100080000000073
:10163000000000003F065B4F666D7D077F6F8040B6
:1016400000BF86DBCFE6EDFD87FFEF3920202020AD
:08165000200C0C0C0C00000042
:0400000508000131BD
:00000001FF
